S01700004763634170706C69636174696F6E312E737265635B
S11300000C9434000C9451000C9451000C94510045
S11300100C9451000C9451000C9451000C94510018
S11300200C9451000C9451000C9451000C94510008
S11300300C9451000C9451000C9451000C945100F8
S11300400C9451000C9451000C9467060C945100CC
S11300500C9451000C9451000C9451000C945100D8
S11300600C9451000C94510011241FBECFEFD8E022
S1130070DEBFCDBF12E0A0E0B1E0E4EEFCE102C0DF
S113008005900D92A63DB107D9F723E0A6EDB2E0A5
S113009001C01D92AF37B207E1F70E949F060C948E
S11300A0700E0C940000672B09F0A1C08A309105F2
S11300B021F485B18E7F85B908958B30910521F4A3
S11300C085B18D7F85B908958C30910521F485B172
S11300D08B7F85B908958D30910521F485B1877F93
S11300E085B908958E30910521F485B18F7E85B947
S11300F008958F30910521F485B18F7D85B90895D8
S11301008031910521F485B18F7B85B908958131C2
S1130110910521F485B18F7785B9089584319105CE
S113012021F488B18E7F88B908958531910521F431
S113013088B18D7F88B908958631910521F488B1FD
S11301408B7F88B908958731910521F488B1877F21
S113015088B908958831910521F488B18F7E88B9D2
S113016008958931910521F488B18F7D88B9089566
S11301708A31910521F488B18F7B88B908958E3135
S1130180910521F48BB18E7F8BB908958F31910540
S113019021F48BB18D7F8BB908958032910521F4C0
S11301A08BB18B7F8BB908958132910521F48BB18A
S11301B0877F8BB908958232910521F48BB18F7EAC
S11301C08BB908958332910521F48BB18F7D8BB95E
S11301D008958432910521F48BB18F7B8BB90895F6
S11301E0859709F0A3C08BB18F778BB908958A30B6
S11301F0910521F485B1816085B908958B3091050D
S113020021F485B1826085B908958C30910521F47B
S113021085B1846085B908958D30910521F485B147
S1130220886085B908958E30910521F485B1806187
S113023085B908958F30910521F485B1806285B91F
S113024008958031910521F485B1806485B90895BC
S11302508131910521F485B1806885B9089584318F
S1130260910521F488B1816088B90895853191059B
S113027021F488B1826088B908958631910521F40A
S113028088B1846088B908958731910521F488B1D3
S1130290886088B908958831910521F488B1806116
S11302A088B908958931910521F488B1806288B9AB
S11302B008958A31910521F488B1806488B908953C
S11302C08E31910521F48BB181608BB908958F3102
S11302D0910521F48BB182608BB908958032910528
S11302E021F48BB184608BB908958132910521F496
S11302F08BB188608BB908958232910521F48BB15A
S113030080618BB908958332910521F48BB18062A9
S11303108BB908958432910521F48BB180648BB933
S11303200895859719F48BB180688BB90895CF939C
S1130330C82F80FF07C061E070E082E290E00E9475
S1130340530006C060E070E082E290E00E94530037
S1130350C1FF07C061E070E083E290E00E945300B7
S113036006C060E070E083E290E00E945300C2FFA8
S113037007C061E070E084E290E00E94530006C090
S113038060E070E084E290E00E945300C3FF07C085
S113039061E070E085E290E00E94530006C060E0F6
S11303A070E085E290E00E945300CF910895CF93CE
S11303B0C82F60E070E08BE090E00E9453008C2F27
S11303C00E94970161E070E08AE090E00E9453008F
S11303D08FE99FE00197F1F700C0000060E070E052
S11303E08AE090E00E9453008FE99FE00197F1F7C3
S11303F000C00000CF91089580E00E94D70181E001
S11304000E94D7010895CF93813061F480E8860F6C
S1130410C62FCF7082958F700E94D7018C2F0E94B7
S1130420D7010DC0823059F480EC860FC62FCF70EF
S113043082958F700E94D7018C2F0E94D701CF9193
S1130440089580E00E9497012FEF89EF90E02150FA
S113045080409040E1F700C0000083E00E94D70193
S11304608FE19EE40197F1F700C0000083E00E9451
S1130470D7018FED9BEA0197F1F700C0000083E0FC
S11304800E94D70182E00E94D70182E00E94D70136
S113049088E00E94D70180E00E94D7018CE00E948E
S11304A0D70180E00E94D70186E00E94D701089519
S11304B0CF93DF93D82FDF70C82FC07F61E070E047
S11304C08BE090E00E9453008C2F82958F700E94E5
S11304D0970161E070E08AE090E00E9453008FE9A8
S11304E09FE00197F1F700C0000060E070E08AE04F
S11304F090E00E9453008FE99FE00197F1F700C05C
S113050000008D2F0E94970161E070E08AE090E086
S11305100E9453008FE99FE00197F1F700C00000AB
S113052060E070E08AE090E00E9453008FE99FE071
S11305300197F1F700C00000DF91CF9108950F9368
S11305401F93CF93DF938C01C0E0D0E003C00E94DF
S113055058022196F801EC0FFD1F80818111F7CF1D
S1130560DF91CF911F910F91089581E00E94D701EF
S11305708CE00E94D701089581E00E94D70188E0B1
S11305800E94D70108952F923F924F925F926F92EB
S11305907F928F929F92AF92BF92CF92DF92EF920F
S11305A0FF920F931F93CF93DF9300D000D0CDB76A
S11305B0DEB79A8389838DB79EB79C838B83E98149
S11305C0FA8101900020E9F731974F0189819A81DE
S11305D0881A990A9924140191E0291A31088DB7CF
S11305E09EB7881999090FB6F8949EBF0FBE8DBFA8
S11305F00DB71EB70F5F1F4F412C512C3201809154
S1130600D6029091D702A091D802B091D902805F0E
S1130610984DAF4FBF4F481659066A067B0660F0E7
S11306201092D6021092D7021092D8021092D902D8
S113063082E080937E0371C080917E03843011F444
S113064010927E03EEEDF2E001900020E9F731977D
S1130650CF018E5D92406C01E12CF12CC114D104C8
S1130660E104F10409F44DC08FE99FE00197F1F72B
S113067000C000009FEF491A590A690A790AEEED91
S1130680F2E001900020E9F73197CF018E5D9240AE
S1130690A0E0B0E0C816D906EA06FB0691F527C02B
S11306A0A101B8016F5F7F4FC8010E944C0BF50197
S11306B0E252FD4F8081F801E20DF31D8083A40115
S11306C069817A81C8010E945E0B892B61F41092C2
S11306D0D6021092D7021092D8021092D90281E069
S11306E080937E031AC08FEFA81AB80A02C0A12C07
S11306F0B12CC501A0E0B0E08C159D05AE05BF0589
S113070078F28FE99FE00197F1F700C000009FEFB6
S1130710491A590A690A790A72CF8B819C810FB6EA
S1130720F8949EBF0FBE8DBF0F900F900F900F9047
S1130730DF91CF911F910F91FF90EF90DF90CF90B9
S1130740BF90AF909F908F907F906F905F904F90ED
S11307503F902F90089580EAEEEDF2E0DF011D92C4
S11307608A95E9F71092DD021092DC021092DB0206
S11307701092DA020895CF93DF93EC0184E0809322
S11307807E03CE010E94C30280917E038823C9F3B5
S1130790DF91CF9108950E94BB0380917E03823044
S11307A011F081E0089580E008950F931F93CF9393
S11307B0DF938C01EB010E94AB03C8010E94A808DF
S11307C080E791E00E94A808CE010E94CB03DF914C
S11307D0CF911F910F9108950F931F93CF93DF93A0
S11307E0CDB7DEB764970FB6F894DEBF0FBECDBFAA
S11307F08E010F5F1F4F94E1F80111929A95E9F76A
S11308001F928F9387E091E09F938F931F930F9391
S11308100E94860B1C8A60E071E0C8010E94D50327
S11308200F900F900F900F900F900F9064960FB64B
S1130830F894DEBF0FBECDBFDF91CF911F910F9112
S113084008950F931F93CF93DF93CDB7DEB76497CB
S11308500FB6F894DEBF0FBECDBF8E010F5F1F4FE2
S113086094E1F80111929A95E9F71F928F9385E12B
S113087091E09F938F931F930F930E94860B1C8A82
S113088060E071E0C8010E94D5030F900F900F90B3
S11308900F900F900F9064960FB6F894DEBF0FBEC2
S11308A0CDBFDF91CF911F910F910895CF93C0E0F9
S11308B011C060E071E082E291E00E94D5038111F1
S11308C00CC060E071E087E291E00E94D5038111E1
S11308D004C0CF5FC53068F380E0CF9108950F93D3
S11308E01F93CF93DF93CDB7DEB764970FB6F89419
S11308F0DEBF0FBECDBF8E010F5F1F4F94E1F80125
S113090011929A95E9F71F928F9388E391E09F9350
S11309108F931F930F930E94860B1C8A60E071E0F3
S1130920C8010E94D5030F900F900F900F900F9065
S11309300F9064960FB6F894DEBF0FBECDBFDF9163
S1130940CF911F910F9108950F931F93CF93DF932E
S1130950CDB7DEB7EC970FB6F894DEBF0FBECDBFB0
S11309608E010F5F1F4F2CE3F80111922A95E9F7CE
S11309707F936F939F938F9389E491E09F938F93D9
S11309801F930F930E94860B1CAE60E671E0C801B2
S11309900E94D5030FB6F894DEBF0FBECDBF811100
S11309A022C063E771E08EED92E00E946C0B892B0C
S11309B0E1F46CE771E08EED92E00E946C0B892B00
S11309C0B1F465E871E08EED92E00E946C0B892B26
S11309D081F46EE871E08EED92E00E946C0B892B3D
S11309E051F084E009C080E007C081E005C082E0E6
S11309F003C083E001C085E0EC960FB6F894DEBF37
S1130A000FBECDBFDF91CF911F910F91089560E08C
S1130A1071E087E991E00E94D50364EA71E08EED0C
S1130A2092E00E946C0B892BD1F46DEA71E08EED9B
S1130A3092E00E946C0B892BA1F466EB71E08EEDC1
S1130A4092E00E946C0B892B71F46FEB71E08EEDD8
S1130A5092E00E946C0B892B41F083E0089580E0C2
S1130A60089581E0089582E0089584E00895DF9276
S1130A70EF92FF920F931F93CF93DF93CDB7DEB71F
S1130A80EC970FB6F894DEBF0FBECDBFD82E162F4D
S1130A90072FF42EE52EFE0131968CE3DF011D9223
S1130AA08A95E9F768EC71E081ED91E00E94D50345
S1130AB08823A1F0EF92FF920F931F938CED91E0A6
S1130AC09F938F93CE0101969F938F930E94860BE1
S1130AD00FB6F894DEBF0FBECDBF15C0EF92FF92E4
S1130AE00F931F931F92DF9286EF91E09F938F9352
S1130AF0CE0101969F938F930E94860B0FB6F894B4
S1130B00DEBF0FBECDBF65E172E0CE0101960E944B
S1130B10D503811105C080917E03823019F403C08E
S1130B2081E001C085E0EC960FB6F894DEBF0FBEFD
S1130B30CDBFDF91CF911F910F91FF90EF90DF9088
S1130B400895EF92FF920F931F93CF93DF93CDB746
S1130B50DEB764970FB6F894DEBF0FBECDBF8C012D
S1130B60CE0101967C0184E1F70111928A95E9F79F
S1130B70F80101900020E9F73197E01BF10B329660
S1130B80FF93EF938FE192E09F938F93FF92EF9205
S1130B900E94860B1C8A6DE272E0C7010E94D50395
S1130BA065E372E0C8010E94D5030F900F900F9087
S1130BB00F900F900F90811105C080917E038230B9
S1130BC019F403C081E001C085E064960FB6F8947F
S1130BD0DEBF0FBECDBFDF91CF911F910F91FF906C
S1130BE0EF900895AF92BF92CF92DF92EF92FF926F
S1130BF00F931F93CF93DF937C010E94FC0161E06C
S1130C0081E00E94030281E492E00E949F0261E07D
S1130C1082E00E94030205E010E00E191F09CAE0F9
S1130C20D0E0C701BE010E941B0BB82ECB01BE0150
S1130C300E941B0BA82E0F2EF4E6CF2ED12CF02DE4
S1130C40C701B6010E941B0BCB01BE010E941B0B06
S1130C50805D0E94580280E38A0D0E94580280E35E
S1130C608B0D0E94580268E082E00E94030280E536
S1130C7092E00E949F026DE082E00E940302C8019C
S1130C80BE010E941B0BF82ECB01BE010E941B0B60
S1130C90E82EC801B6010E941B0BCB01BE010E94C5
S1130CA01B0B805D0E94580280E38E0D0E94580247
S1130CB080E38F0D0E945802DF91CF911F910F9115
S1130CC0FF90EF90DF90CF90BF90AF9008951F9268
S1130CD00F920FB60F9211242F938F939F93EF933C
S1130CE0FF932FB7F894E091DC02F091DD0280913C
S1130CF0C600E252FD4F80838091DC029091DD02B8
S1130D0001969093DD028093DC028091DC02909145
S1130D10DD02803A910541F41092DD021092DC026A
S1130D201092DB021092DA022FBFFF91EF919F9194
S1130D308F912F910F900FBE0F901F901895CF9306
S1130D40DF93CDB7DEB7C659D1090FB6F894DEBF2D
S1130D500FBECDBFE9E6F0E080818C6080838DB367
S1130D6082608DBB8EEF8AB983EF84B90E94210221
S1130D7061E081E00E94030286E592E00E949F0206
S1130D8000E010E00DC02FEF32E587E02150304045
S1130D908040E1F700C000000E94BC020F5F1F4FBB
S1130DA00F30110584F300E010E00DC09FEFE2E581
S1130DB0F7E09150E040F040E1F700C000000E94ED
S1130DC0B5020F5F1F4F0E30110584F32FEF32E58C
S1130DD087E0215030408040E1F700C000000E94CD
S1130DE0FC0181E492E00E949F0261E082E00E94A3
S1130DF003028BE692E00E949F0268E082E00E9478
S1130E00030286E692E00E949F029FEFE2E5F7E08C
S1130E109150E040F040E1F700C0000060E072EC67
S1130E2081E090E00E94730878940E94560488231D
S1130E30E1F383E00E946F0480E00E94210480E0DB
S1130E400E94EC030E940705833031F46FE672E0E0
S1130E508BE792E00E94A4044DE852E060E972E05E
S1130E6080E00E943705D12C00E010E0E12CF12C49
S1130E7085B1806185B983B183FB992790F981E0BD
S1130E80E114F10409F080E0892309F467C08D2D91
S1130E9090E0059784F085B1806185B92FEF30E744
S1130EA082E0215030408040E1F700C00000EE2491
S1130EB0E394F12C5AC085B1806185B9D394AD2CEB
S1130EC0B12CC5010E94F2059FEFE9E6F8E19150CB
S1130ED0E040F040E1F700C000000E940705F82E52
S1130EE023E0821306C06FE672E08BE792E00E9473
S1130EF0A40432E0F31207C04DE852E060E972E066
S1130F0080E00E943705CE0101967C0186E9F70155
S1130F1011928A95E9F7BF92AF9283EA92E09F9388
S1130F208F9384EB92E09F938F93FF92EF920E94B2
S1130F30860BC7010E94A105FFEF2BE732E9F150B0
S1130F4020403040E1F700C000000FB6F894DEBF47
S1130F500FBECDBFEE24E394F12C07C01B9905C04E
S1130F6085B1806185B9E12CF12C83B191E0011543
S1130F70110509F090E082FB882780F9892309F4A0
S1130F8061C0D1100FC085B1806185B99FEFE1EEDA
S1130F90F4E09150E040F040E1F700C0000001E0CF
S1130FA010E066CF85B1806185B9DA94AD2CB12C9F
S1130FB0C5010E94F2052FEF39E688E12150304047
S1130FC08040E1F700C000000E940705182F83301D
S1130FD031F46FE672E08BE792E00E94A4041230D1
S1130FE039F44DE852E060E972E080E00E94370590
S1130FF08E010F5F1F4F86E9F80111928A95E9F778
S1131000BF92AF9283EA92E09F938F9384EB92E036
S11310109F938F931F930F930E94860BC8010E9486
S1131020A105FFEF2BE732E9F15020403040E1F712
S113103000C000000FB6F894DEBF0FBECDBF01E0C4
S113104010E016CF1A9906C085B1806185B900E019
S113105010E00ECFE5E0DE120BCF85B18F7E85B9AF
S1131060FFEF21EE34E0F15020403040E1F700C0C2
S1131070000085B1806285B98FEFE1EEF4E0815024
S1131080E040F040E1F700C0000083B182FB882714
S113109080F99823D9F085B18F7D85B92FEF31EE92
S11310A084E0215030408040E1F700C0000085B169
S11310B0806185B9DA949FEFE1EEF4E09150E0406D
S11310C0F040E1F700C0000001E010E085B18F7D41
S11310D085B92FEF30E782E0215030408040E1F7BE
S11310E000C00000C5CEE0ECF0E020812260208347
S11310F0E1ECF0E0208128692083E2ECF0E020813B
S1131100266820830E94D30920E030E040E051E4C7
S11311100E94610A9B01AC0160E074E284E79BE4F5
S11311200E942B0920E030E040E85FE30E94BE0803
S11311300E94CE0A0E949D096093C4007093C5006A
S113114008958093C6008091C00085FFFCCF089568
S11311500F931F93CF93DF938C01C0E0D0E003C0C3
S11311600E94A1082196F801EC0FFD1F80818111D6
S1131170F7CFDF91CF911F910F9108955058BB275E
S1131180AA270E94D6080C94270A0E94190A38F04C
S11311900E94200A20F039F49F3F19F426F40C949D
S11311A0160A0EF4E095E7FB0C94100AE92F0E944E
S11311B0380A58F3BA17620773078407950720F0B3
S11311C079F4A6F50C945A0A0EF4E0950B2EBA2F76
S11311D0A02D0B01B90190010C01CA01A001112439
S11311E0FF27591B99F0593F50F4503E68F11A16E5
S11311F0F040A22F232F342F4427585FF3CF469576
S113120037952795A795F0405395C9F77EF41F1697
S1131210BA0B620B730B840BBAF09150A1F0FF0F61
S1131220BB1F661F771F881FC2F70EC0BA0F621F4D
S1131230731F841F48F4879577956795B795F7953D
S11312409E3F08F0B0CF9395880F08F09927EE0FD2
S11312509795879508950E943F090C94270A0E9448
S1131260200A58F00E94190A40F029F45F3F29F03F
S11312700C94100A51110C945B0A0C94160A0E94E7
S1131280380A68F39923B1F3552391F3951B550B51
S1131290BB27AA2762177307840738F09F5F5F4F45
S11312A0220F331F441FAA1FA9F335D00E2E3AF084
S11312B0E0E832D091505040E695001CCAF72BD09C
S11312C0FE2F29D0660F771F881FBB1F26173707ED
S11312D04807AB07B0E809F0BB0B802DBF01FF271F
S11312E093585F4F3AF09E3F510578F00C94100AE2
S11312F00C945B0A5F3FE4F3983ED4F386957795AC
S11313006795B795F7959F5FC9F7880F911D9695D7
S1131310879597F90895E1E0660F771F881FBB1F33
S1131320621773078407BA0720F0621B730B840BE0
S1131330BA0BEE1F88F7E09508950E94A4096894FB
S1131340B1110C945B0A08950E94400A88F09F57DB
S113135098F0B92F9927B751B0F0E1F0660F771FD5
S1131360881F991F1AF0BA95C9F714C0B13091F0CB
S11313700E945A0AB1E008950C945A0A672F782FF4
S11313808827B85F39F0B93FCCF386957795679590
S1131390B395D9F73EF490958095709561957F4FFC
S11313A08F4F9F4F0895E89409C097FB3EF49095A2
S11313B08095709561957F4F8F4F9F4F9923A9F02A
S11313C0F92F96E9BB279395F695879577956795B9
S11313D0B795F111F8CFFAF4BB0F11F460FF1BC0FD
S11313E06F5F7F4F8F4F9F4F16C0882311F096E990
S11313F011C0772321F09EE8872F762F05C066233E
S113140071F096E8862F70E060E02AF09A95660FF6
S1131410771F881FDAF7880F9695879597F90895AF
S113142097F99F6780E870E060E008959FEF80EC93
S1131430089500240A941616170618060906089536
S113144000240A9412161306140605060895092E9C
S11314500394000C11F4882352F0BB0F40F4BF2B0B
S113146011F460FF04C06F5F7F4F8F4F9F4F08954B
S113147057FD9058440F551F59F05F3F71F0479541
S1131480880F97FB991F61F09F3F79F08795089526
S1131490121613061406551FF2CF4695F1DF08C045
S11314A0161617061806991FF1CF86957105610562
S11314B008940895E894BB2766277727CB0197F90A
S11314C008950E94740A0C94270A0E94190A38F09D
S11314D00E94200A20F0952311F00C94100A0C9419
S11314E0160A11240C945B0A0E94380A70F3959F23
S11314F0C1F3950F50E0551F629FF001729FBB2707
S1131500F00DB11D639FAA27F00DB11DAA1F649FA2
S11315106627B00DA11D661F829F2227B00DA11D55
S1131520621F739FB00DA11D621F839FA00D611DDB
S1131530221F749F3327A00D611D231F849F600DFC
S1131540211D822F762F6A2F11249F5750409AF025
S1131550F1F088234AF0EE0FFF1FBB1F661F771FB1
S1131560881F91505040A9F79E3F510580F00C947C
S1131570100A0C945B0A5F3FE4F3983ED4F386951B
S113158077956795B795F795E7959F5FC1F7FE2B1C
S1131590880F911D9695879597F908950E94400AA2
S11315A0E8F09E37E8F09639B8F49E3848F4672F8F
S11315B0782F8827985FF9CF8695779567959395C7
S11315C09539D0F3B62FB1706B0F711D811D20F4C6
S11315D087957795679593950C94F20A0C940D0B67
S11315E00C945B0A882371F4772321F09850872B9D
S11315F0762F07C0662311F499270DC09051862BCE
S113160070E060E02AF09A95660F771F881FDAF77A
S1131610880F9695879597F908959F3F31F09150DB
S113162020F4879577956795B795880F911D9695C2
S1131630879597F9089597FB072E16F4009407D021
S113164077FD09D00E942F0B07FC05D03EF490953E
S113165081959F4F0895709561957F4F0895AA1BBA
S1131660BB1B51E107C0AA1FBB1FA617B70710F089
S1131670A61BB70B881F991F5A95A9F780959095BB
S1131680BC01CD010895FB01DC0102C001900D9263
S113169041505040D8F708956817790768F4FB0162
S11316A0DC01E40FF51FA40FB51F02C002900E92D7
S11316B041505040D8F708950C94430BFB01DC01D2
S11316C04150504030F08D910190801919F4002060
S11316D0B9F7881B990B0895FB0151915523A9F083
S11316E0BF01DC014D9145174111E1F759F4CD01DA
S11316F00190002049F04D9140154111C9F3FB01BF
S11317004111EFCF81E090E001970895AEE0B0E0A1
S1131710ECE8FBE00C94470E0D891E8986E08C836F
S11317201A8309838FEF9FE79E838D83AE01475E03
S11317305F4F6F89788DCE0101960E94A80BEF81CF
S1131740F885E00FF11F10822E96E4E00C94630EEE
S1131750ABE0B0E0EEEAFBE00C94390E6C017B01E7
S11317608A01FC0117821682838181FFCCC1CE01DC
S113177001963C01F6019381F70193FD859193FF56
S113178081917F01882309F4BAC1853239F493FD2C
S1131790859193FF81917F01853229F4B60190E010
S11317A00E949F0DE7CF912C212C312CFFE1F315E2
S11317B0D8F08B3279F038F4803279F08332A1F4A6
S11317C0232D20611DC08D3261F0803369F4232DF7
S11317D0216016C0832D8260382EE32DE4603E2EF6
S11317E02AC0F32DF8601DC037FC2DC020ED280F52
S11317F02A3040F08E32B9F436FC81C1232D2064A6
S1131800322E19C036FE06C08AE0989E200D11249F
S1131810922E11C0EAE02E9E200D1124222EF32DCB
S1131820F0623F2E08C08C3621F4832D8068382E58
S113183002C0883641F4F70193FD859193FF8191AD
S11318407F018111B3CF982F9F7D9554933028F455
S11318500C5F1F4F9FE399830DC0833631F08337AC
S113186071F0833509F059C021C0F8018081898362
S11318700E5F1F4F88248394912C530113C02801B9
S1131880F2E04F0E511CF801A080B18036FE03C077
S1131890692D70E002C06FEF7FEFC5010E94940DC7
S11318A04C018201F32DFF773F2E16C0280122E060
S11318B0420E511CF801A080B18036FE03C0692D90
S11318C070E002C06FEF7FEFC5010E94890D4C01EB
S11318D0F32DF0683F2E820133FC1BC0822D90E073
S11318E088169906B0F4B60180E290E00E949F0D3C
S11318F02A94F4CFF50137FC859137FE81915F017D
S1131900B60190E00E949F0D21102A9421E0821AD2
S113191091088114910471F7E8C0843611F0893676
S113192041F5F80137FE07C060817181828193819E
S11319300C5F1F4F08C060817181072E000C880B5B
S1131940990B0E5F1F4FF32DFF763F2E97FF09C0B3
S113195090958095709561957F4F8F4F9F4FF0685C
S11319603F2E2AE030E0A3010E94DB0D882E86186A
S113197045C0853731F4232D2F7EB22E2AE030E086
S113198025C0932D997FB92E8F36C1F018F4883570
S113199079F0B5C0803719F0883721F0B0C0E92F4D
S11319A0E061BE2EB4FE0DC0FB2DF460BF2E09C055
S11319B034FE0AC0292F2660B22E06C028E030E08B
S11319C005C020E130E002C020E132E0F801B7FEBA
S11319D007C060817181828193810C5F1F4F06C0B3
S11319E06081718180E090E00E5F1F4FA3010E942F
S11319F0DB0D882E8618FB2DFF773F2E36FE0DC09B
S1131A00232D2E7FA22E891458F434FE0BC032FCF1
S1131A1009C0832D8E7EA82E05C0B82CA32C03C02C
S1131A20B82C01C0B92CA4FE0FC0FE01E80DF11DB5
S1131A308081803321F49A2D997EA92E09C0A2FEBB
S1131A4006C0B394B39404C08A2D867809F0B39485
S1131A50A3FC11C0A0FE06C0B21488F4280C922C7A
S1131A609B180EC0B21460F4B60180E290E00E94AC
S1131A709F0DB394F7CFB21418F42B1802C0982C0E
S1131A80212CA4FE10C0B60180E390E00E949F0DBB
S1131A90A2FE17C0A1FC03C088E790E002C088E55D
S1131AA090E0B6010CC08A2D867859F0A1FE02C0E0
S1131AB08BE201C080E2A7FC8DE2B60190E00E94B7
S1131AC09F0D891438F4B60180E390E00E949F0DC5
S1131AD09A94F7CF8A94F301E80DF11D8081B60141
S1131AE090E00E949F0D8110F5CF222009F442CE90
S1131AF0B60180E290E00E949F0D2A94F6CFF60191
S1131B008681978102C08FEF9FEF2B96E2E10C94C0
S1131B10550EFC010590615070400110D8F7809576
S1131B2090958E0F9F1F0895FC01615070400190A5
S1131B300110D8F7809590958E0F9F1F08950F93ED
S1131B401F93CF93DF93FB01238121FD03C08FEF0C
S1131B509FEF2CC022FF16C0468157812481358116
S1131B604217530744F4A081B1819D012F5F3F4F79
S1131B70318320838C93268137812F5F3F4F3783B6
S1131B80268314C08B01EC01FB010084F185E02D58
S1131B900995892BE1F6D80116968D919C9117979A
S1131BA0019617969C938E931697CE01DF91CF9151
S1131BB01F910F910895FA01AA27283051F120317D
S1131BC081F1E8946F936E7F6E5F7F4F8F4F9F4FCD
S1131BD0AF4FB1E03ED0B4E03CD0670F781F891F0F
S1131BE09A1FA11D680F791F8A1F911DA11D6A0FDD
S1131BF0711D811D911DA11D20D009F468943F9190
S1131C002AE0269F11243019305D3193DEF6CF018E
S1131C100895462F4770405D4193B3E00FD0C9F754
S1131C20F6CF462F4F70405D4A3318F0495D31FDC1
S1131C304052419302D0A9F7EACFB4E0A695979514
S1131C40879577956795BA95C9F7009761057105EA
S1131C5008959B01AC010A2E069457954795379534
S1131C602795BA95C9F7620F731F841F951FA01D8E
S1131C7008952F923F924F925F926F927F928F922C
S1131C809F92AF92BF92CF92DF92EF92FF920F9307
S1131C901F93CF93DF93CDB7DEB7CA1BDB0B0FB611
S1131CA0F894DEBF0FBECDBF09942A8839884888CE
S1131CB05F846E847D848C849B84AA84B984C88464
S1131CC0DF80EE80FD800C811B81AA81B981CE0F5B
S1131CD0D11D0FB6F894DEBF0FBECDBFED01089540
S1071CE0F894FFCFA2
S1131CE40D0A4F4B0D0A0041542B4349504D4F44A8
S1131CF4453D25640041542B4349504D55583D25D9
S1131D046400415445300041540041542B4349502C
S1131D14434C4F53453D310041542B43574D4F449D
S1131D24455F4355523D25640041542B43574A4172
S1131D34505F4355523D222573222C2225732200E1
S1131D440D0A5749464920434F4E4E454354454492
S1131D540D0A002B43574A41503A31002B43574A4A
S1131D6441503A32002B43574A41503A33002B43F3
S1131D74574A41503A340041542B43495053544137
S1131D84545553005354415455533A320053544117
S1131D945455533A33005354415455533A3400532D
S1131DA454415455533A35004349504D55583A30EB
S1131DB40041542B4349504D55583F0041542B4343
S1131DC4495053544152543D22544350222C222509
S1131DD473222C25730041542B43495053544152CC
S1131DE4543D222564222C22544350222C22257350
S1131DF4222C257300434F4E4E4543540D0A004193
S1131E04542B43495053454E443D2564000D0A4F19
S1131E144B0D0A3E000D0A53454E44204F4B0D0A08
S1131E2400435553544F4D455220434F554E54008F
S1131E344D6F72653A0057656C636F6D652D47721B
S1131E446F75702034004D6F72653A303030004A3B
S1131E54424E384E4E3545374E5900534C542D4C52
S1131E6454452D576946692D3635424400383000AF
S1131E746170692E7468696E67737065616B2E6333
S1131E846F6D0041474642485A423743484A544ECC
S1131E9434545600474554202F7570646174653F6B
S1131EA46170695F6B65793D2573266669656C6449
S1091EB4313D256400002D
S9030000FC
